:100000000C945D000C9485000C9485000C94850084
:100010000C9485000C9485000C9485000C9485004C
:100020000C9485000C9485000C9485000C9485003C
:100030000C9485000C9485000C9485000C9485002C
:100040000C9473020C9485000C94E3020C94BD0292
:100050000C9485000C9485000C9485000C9485000C
:100060000C9485000C94850000000008000201003B
:100070000003040700000000000000000000000072
:10008000250028002B0000000000240027002A0083
:10009000040404040404040402020202020203032E
:1000A0000303030301020408102040800102040836
:1000B0001020010204081020F70311241FBECFEF07
:1000C000D8E0DEBFCDBF11E0A0E0B1E0E8E5F8E0A8
:1000D00002C005900D92AA35B107D9F722E0AAE532
:1000E000B1E001C01D92A130B207E1F710E0CDE50B
:1000F000D0E004C02197FE010E942404CC35D10732
:10010000C9F70E9415030C942A040C94000090E097
:10011000FC01EC55FF4F249180579F4FFC018491C7
:10012000882399F090E0880F991FFC01EA57FF4F50
:10013000A591B491FC01E458FF4F859194918FB73C
:10014000F894EC91E22BEC938FBF089590E0FC01C2
:10015000E859FF4F2491FC01EC55FF4F3491FC010D
:10016000E057FF4FE491EE23C9F0222339F023300A
:1001700001F1A8F4213019F1223029F1F0E0EE0F5D
:10018000FF1FE458FF4FA591B4918FB7F894EC91FD
:10019000611126C030953E233C938FBF08952730D0
:1001A000A9F02830C9F0243049F7809180008F7D74
:1001B00003C0809180008F7780938000DFCF84B56B
:1001C0008F7784BDDBCF84B58F7DFBCF8091B0006E
:1001D0008F778093B000D2CF8091B0008F7DF9CF20
:1001E0003E2BDACF3FB7F894809160019091610186
:1001F000A0916201B091630126B5A89B05C02F3F75
:1002000019F00196A11DB11D3FBFBA2FA92F982F3C
:100210008827BC01CD01620F711D811D911D42E037
:10022000660F771F881F991F4A95D1F708958F92FF
:100230009F92AF92BF92CF92DF92EF92FF924B01CB
:100240005C010E94F2006B017C010E94F2006C19BB
:100250007D098E099F09683E734081059105A8F3C9
:1002600021E0821A9108A108B10888EEC80E83E047
:10027000D81EE11CF11C81149104A104B10429F7DA
:10028000FF90EF90DF90CF90BF90AF909F908F90B6
:100290000895AF92BF92CF92DF92EF92FF920F93A9
:1002A0001F93CF93DF936C017B018B01040F151F0C
:1002B000EB015E01AE18BF08C017D10759F0699174
:1002C000D601ED91FC910190F081E02DC6010995D8
:1002D000892B79F7C501DF91CF911F910F91FF9085
:1002E000EF90DF90CF90BF90AF900895FC01538DB9
:1002F000448D252F30E0842F90E0821B930B541700
:1003000010F0CF96089501970895FC01918D828D8C
:10031000981761F0A28DAE0FBF2FB11D5D968C9125
:10032000928D9F5F9F73928F90E008958FEF9FEF64
:100330000895FC01918D828D981731F0828DE80F20
:10034000F11D858D90E008958FEF9FEF0895FC01DA
:10035000918D228D892F90E0805C9F4F821B9109A7
:100360008F739927089584E691E00E94A70121E008
:10037000892B09F420E0822F089580E090E0892BFA
:1003800029F00E94B30181110C9400000895FC0132
:10039000A48DA80FB92FB11DA35ABF4F2C91848DE6
:1003A00090E001968F739927848FA689B7892C9343
:1003B000A089B1898C91837080648C93938D848D96
:1003C000981306C00288F389E02D80818F7D808399
:1003D0000895EF92FF920F931F93CF93DF93EC0159
:1003E00081E0888F9B8D8C8D98131AC0E889F989DC
:1003F000808185FF15C09FB7F894EE89FF896083DF
:10040000E889F98980818370806480839FBF81E05F
:1004100090E0DF91CF911F910F91FF90EF900895A1
:10042000F62E0B8D10E00F5F1F4F0F731127E02E7C
:100430008C8D8E110CC00FB607FCFACFE889F989B4
:10044000808185FFF5CFCE010E94C701F1CFEB8DF2
:10045000EC0FFD2FF11DE35AFF4FF0829FB7F89488
:100460000B8FEA89FB8980818062CFCFCF93DF93A6
:10047000EC01888D8823B9F0AA89BB89E889F989BC
:100480008C9185FD03C0808186FD0DC00FB607FCF1
:10049000F7CF8C9185FFF2CF808185FFEDCFCE0124
:1004A0000E94C701E9CFDF91CF910895CF93DF93E9
:1004B000FC0101900020E9F73197AF01481B590B6F
:1004C000BC0184E691E00E944901EC0142E050E069
:1004D00062E171E084E691E00E9449018C0F9D1F6A
:1004E000DF91CF9108951F920F920FB60F921124B2
:1004F0002F933F938F939F93AF93BF9380915C0112
:1005000090915D01A0915E01B0915F0130915B011E
:1005100023E0230F2D3758F50196A11DB11D20931F
:100520005B0180935C0190935D01A0935E01B093A9
:100530005F018091600190916101A0916201B09191
:1005400063010196A11DB11D80936001909361012B
:10055000A0936201B0936301BF91AF919F918F917E
:100560003F912F910F900FBE0F901F90189526E886
:10057000230F0296A11DB11DD2CF1F920F920FB66D
:100580000F9211242F933F934F935F936F937F9319
:100590008F939F93AF93BF93EF93FF9384E691E084
:1005A0000E94C701FF91EF91BF91AF919F918F91F1
:1005B0007F916F915F914F913F912F910F900FBE5F
:1005C0000F901F9018951F920F920FB60F92112443
:1005D0002F938F939F93EF93FF93E0917401F0918A
:1005E00075018081E0917A01F0917B0182FD1BC051
:1005F000908180917D018F5F8F7320917E018217A2
:1006000041F0E0917D01F0E0EC59FE4F958F809331
:100610007D01FF91EF919F918F912F910F900FBED0
:100620000F901F9018958081F4CF789484B58260E4
:1006300084BD84B5816084BD85B5826085BD85B586
:10064000816085BD80916E00816080936E00109204
:10065000810080918100826080938100809181007F
:100660008160809381008091800081608093800010
:100670008091B10084608093B1008091B00081606E
:100680008093B00080917A00846080937A0080919A
:100690007A00826080937A0080917A0081608093F2
:1006A0007A0080917A00806880937A001092C1006D
:1006B000E0917401F091750182E08083E091700116
:1006C000F09171011082E0917201F091730187E65F
:1006D000808310927C01E0917801F091790186E0AD
:1006E0008083E0917601F091770180818061808341
:1006F000E0917601F0917701808188608083E091BC
:100700007601F0917701808180688083E0917601A5
:10071000F091770180818F7D808387E00E94870040
:1007200088E00E94870060E088E00E94A60060E008
:1007300087E00E94A60060ED77E080E090E00E94F4
:10074000170185E191E00E94560280915A018111C2
:100750003BC08FE291E00E94560261E087E00E9478
:10076000A6002FEF80E29FE0AAEA3A2E2A95280FF2
:10077000291B2A2BA90F2A0FAA27A81B232523955B
:100780008A1B280F8223A82B8A0F38222325281B97
:10079000A90FA82BA3952A1B3324932D9FE2292B65
:1007A000239520935A0164EF71E080E090E00E946D
:1007B000170160E087E00E94A60064EF71E080E02E
:1007C00090E00E941701C1CF60E087E00E94A60080
:1007D00061E088E00E94A60083E491E00E94560256
:1007E00068EE73E080E090E00E941701F5CFE4E648
:1007F000F1E01382128288EE93E0A0E0B0E08483FF
:100800009583A683B78384E091E09183808385EC10
:1008100090E09587848784EC90E09787868780ECCA
:1008200090E0918B808B81EC90E0938B828B82ECBB
:1008300090E0958B848B86EC90E0978B868B118E65
:10084000128E138E148E0895EE0FFF1F0590F491F3
:08085000E02D0994F894FFCF9C
:1008580000000000E901490176013602A70185017F
:1008680099010D0A004368697020626F6F746564AE
:10087800207375636365737366756C6C792E0043BA
:10088800686970207374617475733A206C6F636B58
:1008980065640043686970207374617475733A20E5
:0A08A800756E6C6F636B65640000F1
:00000001FF
