:100000000C945D000C9485000C9485000C94850084
:100010000C9485000C9485000C9485000C9485004C
:100020000C9485000C9485000C9485000C9485003C
:100030000C9485000C9485000C9485000C9485002C
:100040000C944A040C9485000C94BA040C94940407
:100050000C9485000C9485000C9485000C9485000C
:100060000C9485000C94850000000008000201003B
:100070000003040700000000000000000000000072
:10008000250028002B0000000000240027002A0083
:10009000040404040404040402020202020203032E
:1000A0000303030301020408102040800102040836
:1000B0001020010204081020EC0411241FBECFEF11
:1000C000D8E0DEBFCDBF11E0A0E0B1E0E8E8FEE09F
:1000D00002C005900D92A43DB107D9F722E0A4ED2E
:1000E000B1E001C01D92A33EB207E1F710E0CDE5FB
:1000F000D0E004C02197FE010E942F07CC35D10724
:10010000C9F70E942A050C9442070C94000090E065
:10011000FC01EC55FF4F249180579F4FFC018491C7
:10012000882399F090E0880F991FFC01EA57FF4F50
:10013000A591B491FC01E458FF4F859194918FB73C
:10014000F894EC91E22BEC938FBF089590E0FC01C2
:10015000E859FF4F2491FC01EC55FF4F3491FC010D
:10016000E057FF4FE491EE23C9F0222339F023300A
:1001700001F1A8F4213019F1223029F1F0E0EE0F5D
:10018000FF1FE458FF4FA591B4918FB7F894EC91FD
:10019000611126C030953E233C938FBF08952730D0
:1001A000A9F02830C9F0243049F7809180008F7D74
:1001B00003C0809180008F7780938000DFCF84B56B
:1001C0008F7784BDDBCF84B58F7DFBCF8091B0006E
:1001D0008F778093B000D2CF8091B0008F7DF9CF20
:1001E0003E2BDACF3FB7F8948091DA019091DB0192
:1001F000A091DC01B091DD0126B5A89B05C02F3F81
:1002000019F00196A11DB11D3FBFBA2FA92F982F3C
:100210008827BC01CD01620F711D811D911D42E037
:10022000660F771F881F991F4A95D1F708958F92FF
:100230009F92AF92BF92CF92DF92EF92FF924B01CB
:100240005C010E94F2006B017C010E94F2006C19BB
:100250007D098E099F09683E734081059105A8F3C9
:1002600021E0821A9108A108B10888EEC80E83E047
:10027000D81EE11CF11C81149104A104B10429F7DA
:10028000FF90EF90DF90CF90BF90AF909F908F90B6
:100290000895AF92BF92CF92DF92EF92FF920F93A9
:1002A0001F93CF93DF936C017B018B01040F151F0C
:1002B000EB015E01AE18BF08C017D10759F0699174
:1002C000D601ED91FC910190F081E02DC6010995D8
:1002D000892B79F7C501DF91CF911F910F91FF9085
:1002E000EF90DF90CF90BF90AF900895FC01538DB9
:1002F000448D252F30E0842F90E0821B930B541700
:1003000010F0CF96089501970895FC01918D828D8C
:10031000981761F0A28DAE0FBF2FB11D5D968C9125
:10032000928D9F5F9F73928F90E008958FEF9FEF64
:100330000895FC01918D828D981731F0828DE80F20
:10034000F11D858D90E008958FEF9FEF0895FC01DA
:10035000918D228D892F90E0805C9F4F821B9109A7
:100360008F73992708958EED91E00E94A70121E0F7
:10037000892B09F420E0822F089580E090E0892BFA
:1003800029F00E94B30181110C9400000895FC0132
:10039000A48DA80FB92FB11DA35ABF4F2C91848DE6
:1003A00090E001968F739927848FA689B7892C9343
:1003B000A089B1898C91837080648C93938D848D96
:1003C000981306C00288F389E02D80818F7D808399
:1003D0000895EF92FF920F931F93CF93DF93EC0159
:1003E00081E0888F9B8D8C8D98131AC0E889F989DC
:1003F000808185FF15C09FB7F894EE89FF896083DF
:10040000E889F98980818370806480839FBF81E05F
:1004100090E0DF91CF911F910F91FF90EF900895A1
:10042000F62E0B8D10E00F5F1F4F0F731127E02E7C
:100430008C8D8E110CC00FB607FCFACFE889F989B4
:10044000808185FFF5CFCE010E94C701F1CFEB8DF2
:10045000EC0FFD2FF11DE35AFF4FF0829FB7F89488
:100460000B8FEA89FB8980818062CFCFCF93DF93A6
:10047000EC01888D8823B9F0AA89BB89E889F989BC
:100480008C9185FD03C0808186FD0DC00FB607FCF1
:10049000F7CF8C9185FFF2CF808185FFEDCFCE0124
:1004A0000E94C701E9CFDF91CF910895CF93DF93E9
:1004B000EC0160E08C810E94A60062E070E080E0C8
:1004C00090E00E94170161E08C81DF91CF910C9444
:1004D000A600CF93FC0184810E948700CFB7F894D7
:1004E0008091D401811124C0EAE9F0E08491EEEA20
:1004F000F0E09491E82FF0E0EE0FFF1FEA57FF4F76
:10050000A591B491EC91E92321F461E08AE00E9485
:10051000A6008AE00E9487008CB580618CBD8CB5F6
:1005200080648CBD8DE00E9487008BE00E94870074
:100530008091D4018F5F8093D401CFBF8CB5837F2E
:100540008CBD8CB580628CBD8CB58C7F81608CBD80
:100550008DB581608DBDCF9108958EBD00000DB425
:1005600007FEFDCF8EB5089580E00C94AD021F9379
:10057000CF93DF93EC0160E08C810E94A60082E0C3
:100580000E94AD020E94B402182F61E08C810E948B
:10059000A600812F8170DF91CF911F910895BF92A6
:1005A000CF92DF92EF92FF920F931F93CF93DF933F
:1005B0008C01D62EB72EC42E7901D0E0C0E0C80140
:1005C0000E94B702811110C061E070E080E090E00D
:1005D0000E9417012196E114F10489F3EC16FD063F
:1005E00070F7CEEFDFEF19C060E0F80184810E9460
:1005F000A60061E070E080E090E00E94170183E0D7
:100600000E94AD020E94B402882391F0CDEFDFEF8B
:1006100061E0F80184810E94A600CE01DF91CF91B4
:100620001F910F91FF90EF90DF90CF90BF900895B2
:100630000E94B4028111EACF0E94B4028F3F31F7C9
:100640000E94B402C82F0E94B4028C0FF9F6F80180
:10065000D5810E94B402853DC9F60E94B40291E0A2
:100660009D0F9813D3CFC250CC1638F40E94B40219
:100670000E94B402CCEFDFEFCBCFDA52CD2CED2CC1
:10068000FB2C8E2D8C198C1738F40E94B402F701C4
:1006900081937F01D80FF5CF0E94B4028D0F09F02E
:1006A000B5CF0E94B402D0E0B3CFCF93C82F61E0A2
:1006B0000E94A60064EF71E080E090E00E941701C4
:1006C00060E08C2FCF910C94A600FC0101900020DB
:1006D000E9F73197AF01481B590BBC018EED91E052
:1006E0000C944901CF93DF930E946503EC0184E2EF
:1006F00091E00E9465038C0F9D1FDF91CF910895BB
:100700008F929F92AF92BF92CF92DF92EF92FF9221
:100710000F931F93CF93DF93CDB7DEB72C970FB610
:10072000F894DEBF0FBECDBF6C017B01A42E922ECC
:10073000832EFB018081F601858360E084810E9425
:10074000A60062E070E080E090E00E94170181E086
:100750000E94AD0280E00E94AD0280E00E94AD02E6
:100760008FEF0E94AD021A2D100F81E0810F0E94C1
:10077000AD02812F80950E94AD0284ED0E94AD02F2
:10078000AE0CBF2CB11C14EDEA14FB0491F4E92C5F
:10079000F82C5701A00EB11CEA14FB04A1F0F701DC
:1007A00081917F010E94AD02F70131978081180F7E
:1007B000F3CFF70181917F010E94AD02F7013197DC
:1007C0008081180FE1CF812F81950E94AD0280E0DA
:1007D0000E94AD0261E0F60184810E94A6001AE049
:1007E000C6010E94B70281110AC061E070E080E09A
:1007F00090E00E941701115099F78EEF38C086E003
:10080000E0E0F1E0DE01179601900D928A95E1F7A4
:1008100060E0F60184810E94A60061E070E080E063
:1008200090E00E94170183E00E94AD028E010F5FED
:100830001F4F5E01F7E0AF0EB11C78010E94B402B9
:10084000F80181938F01EA15FB05C1F761E0F6011C
:1008500084810E94A60046E050E0B801C7010E94D2
:10086000350791E0811101C090E0892F81952C9688
:100870000FB6F894DEBF0FBECDBFDF91CF911F91B1
:100880000F91FF90EF90DF90CF90BF90AF909F902F
:100890008F9008951F920F920FB60F9211242F93ED
:1008A0003F938F939F93AF93BF938091D601909185
:1008B000D701A091D801B091D9013091D50123E0A1
:1008C000230F2D3758F50196A11DB11D2093D50199
:1008D0008093D6019093D701A093D801B093D9010A
:1008E0008091DA019091DB01A091DC01B091DD01F2
:1008F0000196A11DB11D8093DA019093DB01A093B5
:10090000DC01B093DD01BF91AF919F918F913F9139
:100910002F910F900FBE0F901F90189526E8230F70
:100920000296A11DB11DD2CF1F920F920FB60F924A
:1009300011242F933F934F935F936F937F938F93E4
:100940009F93AF93BF93EF93FF938EED91E00E943F
:10095000C701FF91EF91BF91AF919F918F917F91CF
:100960006F915F914F913F912F910F900FBE0F901C
:100970001F9018951F920F920FB60F9211242F936C
:100980008F939F93EF93FF93E091EE01F091EF012E
:100990008081E091F401F091F50182FD1BC090810E
:1009A0008091F7018F5F8F732091F801821741F0DA
:1009B000E091F701F0E0E252FE4F958F8093F7014E
:1009C000FF91EF919F918F912F910F900FBE0F90FC
:1009D0001F9018958081F4CFEEEDF1E01382128222
:1009E00088EE93E0A0E0B0E084839583A683B7838C
:1009F0008AE091E09183808385EC90E095878487FD
:100A000084EC90E09787868780EC90E0918B808BD8
:100A100081EC90E0938B828B82EC90E0958B848BC1
:100A200086EC90E0978B868B118E128E138E148E2F
:100A3000EDEDF2E08CE191E09183808315828CED05
:100A400092E0938382838AE08483F093DB02E093D5
:100A5000DA020895CF93DF93CDB7DEB7A8970FB62C
:100A6000F894DEBF0FBECDBF789484B5826084BD9C
:100A700084B5816084BD85B5826085BD85B58160A2
:100A800085BD80916E00816080936E001092810020
:100A900080918100826080938100809181008160DB
:100AA000809381008091800081608093800080919C
:100AB000B10084608093B1008091B0008160809328
:100AC000B00080917A00846080937A0080917A00EF
:100AD000826080937A0080917A00816080937A00AE
:100AE00080917A00806880937A001092C100E09132
:100AF000EE01F091EF0102E00083E091EA01F09154
:100B0000EB011082E091EC01F091ED0187E680832A
:100B10001092F601E091F201F091F30186E08083FA
:100B2000E091F001F091F101808180618083E0919A
:100B3000F001F091F101808188608083E091F00103
:100B4000F091F101808180688083E091F001F09163
:100B5000F10180818F7D808387E00E94870088E09B
:100B60000E94870089E00E94870060E087E00E9481
:100B7000A60060E088E00E94A60060E089E00E9494
:100B8000A6008091DA029091DB02DC01ED91FC91EC
:100B90000190F081E02D09958091DA029091DB02BD
:100BA000DC01ED91FC910280F381E02D0995009329
:100BB0009A028091DA029091DB02DC01ED91FC91C6
:100BC0000480F581E02D00E030E020E041E06AE9BA
:100BD00072E00995882309F48AC087E291E00E94B7
:100BE000720394E190939A0281E080939B02909328
:100BF0009C0280939D028091DA029091DB02DC01DD
:100C0000ED91FC910480F581E02D00E030E020E0E2
:100C100044E06AE972E00995811110C08091DA021E
:100C20009091DB02DC01ED91FC910680F781E02DD3
:100C300028EE33E040E46AE972E0099560ED77E080
:100C400080E090E00E9417018EE491E00E94720320
:100C500027E0922E6E01B2E2CB0ED11C3AE4832E35
:100C60007724739440E0A42E40E0B42EF601892D41
:100C700011928A95E9F780929A0270929B021092E3
:100C80009C028091DA029091DB02DC01ED91FC91F3
:100C90000480F581E02D00E030E020E043E06AE9E7
:100CA00072E009958111D6C08091DA029091DB0241
:100CB000DC01ED91FC910680F781E02D28E833E11D
:100CC00040E46AE972E0099597FDC4C080919A02F8
:100CD000813009F0BFC000919F02A0EAB2E0F601A6
:100CE0008E2F8C19801790F58D918193F9CF80917B
:100CF000DA029091DB02DC01ED91FC910680F78134
:100D0000E02D28EE33E040E46AE972E0099597FDB2
:100D100064CF80919A0290919B0298278927982707
:100D2000B0E0A0E0BA2FA92F982F882720919C022D
:100D3000822BBA2FA92F982F882720919D02822BD2
:100D4000892B8A2B8B2B09F04CCF47CF88E691E07B
:100D50000E946503EE24EA94E00E0E2C000CFF08BE
:100D6000BFEFEB1659F1F601EE0DFF1D408150E08B
:100D700070E060E019A2FE01B196DB01CA018F703C
:100D80009927AA27BB2794E07695679557954795AD
:100D90009A95D1F78A3084F4805D8293411551058C
:100DA0006105710551F7309719F0CF010E94650375
:100DB000E1E0EE1AF108D4CF895CEFCF84E291E054
:100DC0000E94650361E089E00E94A6008AA19BA1C0
:100DD0002CA13DA111270024043009F00394833A8B
:100DE00009F00394913D09F003942B3809F0039422
:100DF000343309F00394002009F411E0000064E6A4
:100E000070E080E090E00E94170160E089E00E94BD
:100E1000A6001123C9F082E991E00E94720388E0E4
:100E20000E94550364EF71E080E090E00E9417019A
:100E3000A114B10409F41ACF0E94B301882309F464
:100E400015CF0E94000012CF83EA91E00E94720346
:100E500087E0E6CF82EB91E00E947203E3CFEE0FD2
:100E6000FF1F0590F491E02D0994FB01DC0104C003
:100E70008D910190801921F441505040C8F7881B92
:080E8000990B0895F894FFCFCF
:100E88000000FF00FF0000000000E90149017601B1
:100E98003602A70185019901000000006902560287
:100EA8008003CF020D0A00436F6D6D756E69636133
:100EB80074696F6E207769746820504E353332201C
:100EC800626F617264206661696C65642E004368B4
:100ED800697020626F6F74656420737563636573EE
:100EE8007366756C6C792E000A466F756E642061A6
:100EF8006E2049534F313434343341206361726476
:100F08002077697468205549442076616C75653A84
:100F18002000416363657373206772616E74656452
:100F28002E0A004163636573732064656E696564A6
:100F38002E0057616974696E6720666F7220616E52
:100F48002049534F31343434334120436172642E85
:040F58002E2E000039
:00000001FF
